{
  "_format": "hh-sol-artifact-1",
  "contractName": "DecentralFund",
  "sourceName": "contracts/DecentralFund.sol",
  "abi": [
    {
      "anonymous": false,
      "inputs": [
        {
          "indexed": false,
          "internalType": "uint256",
          "name": "campaignId",
          "type": "uint256"
        },
        {
          "indexed": false,
          "internalType": "string",
          "name": "title",
          "type": "string"
        },
        {
          "indexed": false,
          "internalType": "uint256",
          "name": "targetAmount",
          "type": "uint256"
        },
        {
          "indexed": false,
          "internalType": "uint256",
          "name": "deadline",
          "type": "uint256"
        }
      ],
      "name": "CampaignCreated",
      "type": "event"
    },
    {
      "anonymous": false,
      "inputs": [
        {
          "indexed": false,
          "internalType": "uint256",
          "name": "campaignId",
          "type": "uint256"
        },
        {
          "indexed": false,
          "internalType": "address",
          "name": "contributor",
          "type": "address"
        },
        {
          "indexed": false,
          "internalType": "uint256",
          "name": "amount",
          "type": "uint256"
        }
      ],
      "name": "ContributionReceived",
      "type": "event"
    },
    {
      "anonymous": false,
      "inputs": [
        {
          "indexed": false,
          "internalType": "uint256",
          "name": "campaignId",
          "type": "uint256"
        },
        {
          "indexed": false,
          "internalType": "uint256",
          "name": "amount",
          "type": "uint256"
        }
      ],
      "name": "FundsWithdrawn",
      "type": "event"
    },
    {
      "anonymous": false,
      "inputs": [
        {
          "indexed": false,
          "internalType": "uint256",
          "name": "campaignId",
          "type": "uint256"
        },
        {
          "indexed": false,
          "internalType": "address",
          "name": "contributor",
          "type": "address"
        },
        {
          "indexed": false,
          "internalType": "uint256",
          "name": "amount",
          "type": "uint256"
        }
      ],
      "name": "RefundIssued",
      "type": "event"
    },
    {
      "inputs": [],
      "name": "campaignCount",
      "outputs": [
        {
          "internalType": "uint256",
          "name": "",
          "type": "uint256"
        }
      ],
      "stateMutability": "view",
      "type": "function"
    },
    {
      "inputs": [
        {
          "internalType": "uint256",
          "name": "",
          "type": "uint256"
        }
      ],
      "name": "campaigns",
      "outputs": [
        {
          "internalType": "address payable",
          "name": "creator",
          "type": "address"
        },
        {
          "internalType": "string",
          "name": "title",
          "type": "string"
        },
        {
          "internalType": "string",
          "name": "description",
          "type": "string"
        },
        {
          "internalType": "uint256",
          "name": "targetAmount",
          "type": "uint256"
        },
        {
          "internalType": "uint256",
          "name": "deadline",
          "type": "uint256"
        },
        {
          "internalType": "uint256",
          "name": "amountCollected",
          "type": "uint256"
        },
        {
          "internalType": "bool",
          "name": "fundsWithdrawn",
          "type": "bool"
        }
      ],
      "stateMutability": "view",
      "type": "function"
    },
    {
      "inputs": [
        {
          "internalType": "uint256",
          "name": "_campaignId",
          "type": "uint256"
        }
      ],
      "name": "contribute",
      "outputs": [],
      "stateMutability": "payable",
      "type": "function"
    },
    {
      "inputs": [
        {
          "internalType": "uint256",
          "name": "",
          "type": "uint256"
        },
        {
          "internalType": "address",
          "name": "",
          "type": "address"
        }
      ],
      "name": "contributions",
      "outputs": [
        {
          "internalType": "uint256",
          "name": "",
          "type": "uint256"
        }
      ],
      "stateMutability": "view",
      "type": "function"
    },
    {
      "inputs": [
        {
          "internalType": "string",
          "name": "_title",
          "type": "string"
        },
        {
          "internalType": "string",
          "name": "_description",
          "type": "string"
        },
        {
          "internalType": "uint256",
          "name": "_targetAmount",
          "type": "uint256"
        },
        {
          "internalType": "uint256",
          "name": "_deadline",
          "type": "uint256"
        }
      ],
      "name": "createCampaign",
      "outputs": [],
      "stateMutability": "nonpayable",
      "type": "function"
    },
    {
      "inputs": [
        {
          "internalType": "uint256",
          "name": "_campaignId",
          "type": "uint256"
        }
      ],
      "name": "getCampaignDetails",
      "outputs": [
        {
          "components": [
            {
              "internalType": "address payable",
              "name": "creator",
              "type": "address"
            },
            {
              "internalType": "string",
              "name": "title",
              "type": "string"
            },
            {
              "internalType": "string",
              "name": "description",
              "type": "string"
            },
            {
              "internalType": "uint256",
              "name": "targetAmount",
              "type": "uint256"
            },
            {
              "internalType": "uint256",
              "name": "deadline",
              "type": "uint256"
            },
            {
              "internalType": "uint256",
              "name": "amountCollected",
              "type": "uint256"
            },
            {
              "internalType": "bool",
              "name": "fundsWithdrawn",
              "type": "bool"
            }
          ],
          "internalType": "struct DecentralFund.Campaign",
          "name": "",
          "type": "tuple"
        }
      ],
      "stateMutability": "view",
      "type": "function"
    },
    {
      "inputs": [
        {
          "internalType": "uint256",
          "name": "_campaignId",
          "type": "uint256"
        }
      ],
      "name": "refund",
      "outputs": [],
      "stateMutability": "nonpayable",
      "type": "function"
    },
    {
      "inputs": [
        {
          "internalType": "uint256",
          "name": "_campaignId",
          "type": "uint256"
        }
      ],
      "name": "withdrawFunds",
      "outputs": [],
      "stateMutability": "nonpayable",
      "type": "function"
    }
  ],
  "bytecode": "0x608060405234801561001057600080fd5b50611931806100206000396000f3fe60806040526004361061007b5760003560e01c80637274e30d1161004e5780637274e30d14610152578063a318f2691461017d578063c1cbbca7146101a6578063d993de62146101c25761007b565b8063141961bc14610080578063155dd5ee146100c3578063278ecde1146100ec5780633d891f5914610115575b600080fd5b34801561008c57600080fd5b506100a760048036038101906100a29190610f65565b6101ff565b6040516100ba97969594939291906113ae565b60405180910390f35b3480156100cf57600080fd5b506100ea60048036038101906100e59190610f65565b61037e565b005b3480156100f857600080fd5b50610113600480360381019061010e9190610f65565b6105eb565b005b34801561012157600080fd5b5061013c60048036038101906101379190610f8e565b610807565b604051610149919061156d565b60405180910390f35b34801561015e57600080fd5b5061016761082c565b604051610174919061156d565b60405180910390f35b34801561018957600080fd5b506101a4600480360381019061019f9190610ed2565b610832565b005b6101c060048036038101906101bb9190610f65565b6109f3565b005b3480156101ce57600080fd5b506101e960048036038101906101e49190610f65565b610b68565b6040516101f6919061154b565b60405180910390f35b60016020528060005260406000206000915090508060000160009054906101000a900473ffffffffffffffffffffffffffffffffffffffff1690806001018054610248906117b4565b80601f0160208091040260200160405190810160405280929190818152602001828054610274906117b4565b80156102c15780601f10610296576101008083540402835291602001916102c1565b820191906000526020600020905b8154815290600101906020018083116102a457829003601f168201915b5050505050908060020180546102d6906117b4565b80601f0160208091040260200160405190810160405280929190818152602001828054610302906117b4565b801561034f5780601f106103245761010080835404028352916020019161034f565b820191906000526020600020905b81548152906001019060200180831161033257829003601f168201915b5050505050908060030154908060040154908060050154908060060160009054906101000a900460ff16905087565b803373ffffffffffffffffffffffffffffffffffffffff166001600083815260200190815260200160002060000160009054906101000a900473ffffffffffffffffffffffffffffffffffffffff1673ffffffffffffffffffffffffffffffffffffffff1614610423576040517f08c379a000000000000000000000000000000000000000000000000000000000815260040161041a9061152b565b60405180910390fd5b600060016000848152602001908152602001600020905080600401544211610480576040517f08c379a00000000000000000000000000000000000000000000000000000000081526004016104779061150b565b60405180910390fd5b8060030154816005015410156104cb576040517f08c379a00000000000000000000000000000000000000000000000000000000081526004016104c29061142b565b60405180910390fd5b8060060160009054906101000a900460ff161561051d576040517f08c379a00000000000000000000000000000000000000000000000000000000081526004016105149061144b565b60405180910390fd5b60018160060160006101000a81548160ff0219169083151502179055508060000160009054906101000a900473ffffffffffffffffffffffffffffffffffffffff1673ffffffffffffffffffffffffffffffffffffffff166108fc82600501549081150290604051600060405180830381858888f193505050501580156105a8573d6000803e3d6000fd5b507fd66662c0ded9e58fd31d5e44944bcfd07ffc15e6927ecc1382e7941cb7bd24c48382600501546040516105de92919061160b565b60405180910390a1505050565b600060016000838152602001908152602001600020905080600401544211610648576040517f08c379a000000000000000000000000000000000000000000000000000000000815260040161063f9061150b565b60405180910390fd5b8060030154816005015410610692576040517f08c379a0000000000000000000000000000000000000000000000000000000008152600401610689906114cb565b60405180910390fd5b60006002600084815260200190815260200160002060003373ffffffffffffffffffffffffffffffffffffffff1673ffffffffffffffffffffffffffffffffffffffff1681526020019081526020016000205490506000811161072a576040517f08c379a00000000000000000000000000000000000000000000000000000000081526004016107219061148b565b60405180910390fd5b60006002600085815260200190815260200160002060003373ffffffffffffffffffffffffffffffffffffffff1673ffffffffffffffffffffffffffffffffffffffff168152602001908152602001600020819055503373ffffffffffffffffffffffffffffffffffffffff166108fc829081150290604051600060405180830381858888f193505050501580156107c6573d6000803e3d6000fd5b507f7a482fdeb6bc9a1376f597068a214a7a39472bb2eff1b8cad21ba04f49ddca1b8333836040516107fa93929190611588565b60405180910390a1505050565b6002602052816000526040600020602052806000526040600020600091509150505481565b60005481565b428111610874576040517f08c379a000000000000000000000000000000000000000000000000000000000815260040161086b906114ab565b60405180910390fd5b600080815480929190610886906117e6565b91905055506040518060e001604052803373ffffffffffffffffffffffffffffffffffffffff1681526020018581526020018481526020018381526020018281526020016000815260200160001515815250600160008054815260200190815260200160002060008201518160000160006101000a81548173ffffffffffffffffffffffffffffffffffffffff021916908373ffffffffffffffffffffffffffffffffffffffff160217905550602082015181600101908051906020019061094f929190610d48565b50604082015181600201908051906020019061096c929190610d48565b50606082015181600301556080820151816004015560a0820151816005015560c08201518160060160006101000a81548160ff0219169083151502179055509050507f02fe3fddd43aad14ae5c30d5d694f19ecb065dfde85bb591b91e8af1448724d26000548584846040516109e594939291906115bf565b60405180910390a150505050565b8060016000828152602001908152602001600020600401544210610a4c576040517f08c379a0000000000000000000000000000000000000000000000000000000008152600401610a439061146b565b60405180910390fd5b60003411610a8f576040517f08c379a0000000000000000000000000000000000000000000000000000000008152600401610a86906114eb565b60405180910390fd5b600060016000848152602001908152602001600020905034816005016000828254610aba91906116c2565b92505081905550346002600085815260200190815260200160002060003373ffffffffffffffffffffffffffffffffffffffff1673ffffffffffffffffffffffffffffffffffffffff1681526020019081526020016000206000828254610b2191906116c2565b925050819055507f865c884d49c8cecaef108efb20f7d282f26c0f9b0d24dd48e5592d4e02ec658d833334604051610b5b93929190611588565b60405180910390a1505050565b610b70610dce565b600160008381526020019081526020016000206040518060e00160405290816000820160009054906101000a900473ffffffffffffffffffffffffffffffffffffffff1673ffffffffffffffffffffffffffffffffffffffff1673ffffffffffffffffffffffffffffffffffffffff168152602001600182018054610bf4906117b4565b80601f0160208091040260200160405190810160405280929190818152602001828054610c20906117b4565b8015610c6d5780601f10610c4257610100808354040283529160200191610c6d565b820191906000526020600020905b815481529060010190602001808311610c5057829003601f168201915b50505050508152602001600282018054610c86906117b4565b80601f0160208091040260200160405190810160405280929190818152602001828054610cb2906117b4565b8015610cff5780601f10610cd457610100808354040283529160200191610cff565b820191906000526020600020905b815481529060010190602001808311610ce257829003601f168201915b505050505081526020016003820154815260200160048201548152602001600582015481526020016006820160009054906101000a900460ff1615151515815250509050919050565b828054610d54906117b4565b90600052602060002090601f016020900481019282610d765760008555610dbd565b82601f10610d8f57805160ff1916838001178555610dbd565b82800160010185558215610dbd579182015b82811115610dbc578251825591602001919060010190610da1565b5b509050610dca9190610e23565b5090565b6040518060e00160405280600073ffffffffffffffffffffffffffffffffffffffff16815260200160608152602001606081526020016000815260200160008152602001600081526020016000151581525090565b5b80821115610e3c576000816000905550600101610e24565b5090565b6000610e53610e4e84611665565b611634565b905082815260208101848484011115610e6b57600080fd5b610e76848285611772565b509392505050565b600081359050610e8d816118cd565b92915050565b600082601f830112610ea457600080fd5b8135610eb4848260208601610e40565b91505092915050565b600081359050610ecc816118e4565b92915050565b60008060008060808587031215610ee857600080fd5b600085013567ffffffffffffffff811115610f0257600080fd5b610f0e87828801610e93565b945050602085013567ffffffffffffffff811115610f2b57600080fd5b610f3787828801610e93565b9350506040610f4887828801610ebd565b9250506060610f5987828801610ebd565b91505092959194509250565b600060208284031215610f7757600080fd5b6000610f8584828501610ebd565b91505092915050565b60008060408385031215610fa157600080fd5b6000610faf85828601610ebd565b9250506020610fc085828601610e7e565b9150509250929050565b610fd38161172a565b82525050565b610fe28161172a565b82525050565b610ff181611718565b82525050565b6110008161173c565b82525050565b61100f8161173c565b82525050565b600061102082611695565b61102a81856116a0565b935061103a818560208601611781565b611043816118bc565b840191505092915050565b600061105982611695565b61106381856116b1565b9350611073818560208601611781565b61107c816118bc565b840191505092915050565b60006110946018836116b1565b91507f46756e64696e6720676f616c206e6f74207265616368656400000000000000006000830152602082019050919050565b60006110d46017836116b1565b91507f46756e647320616c72656164792077697468647261776e0000000000000000006000830152602082019050919050565b60006111146013836116b1565b91507f43616d706169676e206e6f7420616374697665000000000000000000000000006000830152602082019050919050565b60006111546016836116b1565b91507f4e6f20636f6e747269627574696f6e7320666f756e64000000000000000000006000830152602082019050919050565b60006111946010836116b1565b91507f496e76616c696420646561646c696e65000000000000000000000000000000006000830152602082019050919050565b60006111d46014836116b1565b91507f46756e64696e6720676f616c20726561636865640000000000000000000000006000830152602082019050919050565b60006112146023836116b1565b91507f436f6e747269627574696f6e206d75737420626520677265617465722074686160008301527f6e203000000000000000000000000000000000000000000000000000000000006020830152604082019050919050565b600061127a6012836116b1565b91507f43616d706169676e206e6f7420656e64656400000000000000000000000000006000830152602082019050919050565b60006112ba6014836116b1565b91507f4e6f742063616d706169676e2063726561746f720000000000000000000000006000830152602082019050919050565b600060e0830160008301516113056000860182610fca565b506020830151848203602086015261131d8282611015565b915050604083015184820360408601526113378282611015565b915050606083015161134c6060860182611390565b50608083015161135f6080860182611390565b5060a083015161137260a0860182611390565b5060c083015161138560c0860182610ff7565b508091505092915050565b61139981611768565b82525050565b6113a881611768565b82525050565b600060e0820190506113c3600083018a610fd9565b81810360208301526113d5818961104e565b905081810360408301526113e9818861104e565b90506113f8606083018761139f565b611405608083018661139f565b61141260a083018561139f565b61141f60c0830184611006565b98975050505050505050565b6000602082019050818103600083015261144481611087565b9050919050565b60006020820190508181036000830152611464816110c7565b9050919050565b6000602082019050818103600083015261148481611107565b9050919050565b600060208201905081810360008301526114a481611147565b9050919050565b600060208201905081810360008301526114c481611187565b9050919050565b600060208201905081810360008301526114e4816111c7565b9050919050565b6000602082019050818103600083015261150481611207565b9050919050565b600060208201905081810360008301526115248161126d565b9050919050565b60006020820190508181036000830152611544816112ad565b9050919050565b6000602082019050818103600083015261156581846112ed565b905092915050565b6000602082019050611582600083018461139f565b92915050565b600060608201905061159d600083018661139f565b6115aa6020830185610fe8565b6115b7604083018461139f565b949350505050565b60006080820190506115d4600083018761139f565b81810360208301526115e6818661104e565b90506115f5604083018561139f565b611602606083018461139f565b95945050505050565b6000604082019050611620600083018561139f565b61162d602083018461139f565b9392505050565b6000604051905081810181811067ffffffffffffffff8211171561165b5761165a61188d565b5b8060405250919050565b600067ffffffffffffffff8211156116805761167f61188d565b5b601f19601f8301169050602081019050919050565b600081519050919050565b600082825260208201905092915050565b600082825260208201905092915050565b60006116cd82611768565b91506116d883611768565b9250827fffffffffffffffffffffffffffffffffffffffffffffffffffffffffffffffff0382111561170d5761170c61182f565b5b828201905092915050565b600061172382611748565b9050919050565b600061173582611748565b9050919050565b60008115159050919050565b600073ffffffffffffffffffffffffffffffffffffffff82169050919050565b6000819050919050565b82818337600083830152505050565b60005b8381101561179f578082015181840152602081019050611784565b838111156117ae576000848401525b50505050565b600060028204905060018216806117cc57607f821691505b602082108114156117e0576117df61185e565b5b50919050565b60006117f182611768565b91507fffffffffffffffffffffffffffffffffffffffffffffffffffffffffffffffff8214156118245761182361182f565b5b600182019050919050565b7f4e487b7100000000000000000000000000000000000000000000000000000000600052601160045260246000fd5b7f4e487b7100000000000000000000000000000000000000000000000000000000600052602260045260246000fd5b7f4e487b7100000000000000000000000000000000000000000000000000000000600052604160045260246000fd5b6000601f19601f8301169050919050565b6118d681611718565b81146118e157600080fd5b50565b6118ed81611768565b81146118f857600080fd5b5056fea26469706673582212200070d2fb177393f315ee5e52dcaa49baa439f4ffc1f8ea9fa1c09c2dcdb85d5064736f6c63430008000033",
  "linkReferences": {},
  "deployedLinkReferences": {}
}